:020000022000DC
:1030000000000120F9E3020021E4020023E40200B1
:1030100025E4020027E4020029E402000000000089
:103020000000000000000000000000002BE402008F
:103030002DE40200000000002FE4020031E4020051
:10304000D979020033E402000D87020033E4020064
:1030500033E4020033E40200997D020033E402000D
:1030600033E4020033E4020033E4020033E40200FC
:1030700033E4020033E4020033E4020033E40200EC
:1030800033E40200C143020033E4020033E40200EF
:103090006144020033E40200A5E9020033E40200C7
:1030A00033E4020033E4020033E4020033E40200BC
:1030B00033E4020033E402000000000000000000DE
:1030C00033E4020033E4020033E4020033E402009C
:1030D00033E4020033E4020033E4020000000000A5
:1030E00000000000000000000000000000000000E0
:1030F00000000000000000000000000000000000D0
:1031000000000000000000000000000000000000BF
:1031100000000000000000000000000000000000AF
:10312000000000000000000000000000000000009F
:10313000000000000000000000000000000000008F
:10314000000000000000000000000000000000007F
:10315000000000000000000000000000000000006F
:10316000000000000000000000000000000000005F
:10317000000000000000000000000000000000004F
:10318000000000000000000000000000000000003F
:10319000000000000000000000000000000000002F
:1031A000000000000000000000000000000000001F
:1031B000000000000000000000000000000000000F
:1031C00000000000000000000000000000000000FF
:1031D00000000000000000000000000000000000EF
:1031E00000000000000000000000000000000000DF
:1031F00000000000000000000000000000000000CF
:1032000010B5054C237833B9044B13B10448AFF320
:1032100000800123237010BD7023002000000000F7
:103220000CFC020008B5034B1BB103490348AFF384
:10323000008008BD00000000742300200CFC020088
:10324000154B002B08BF134B9D46A3F5803A002178
:103250008B460F461348144A121A0BF06BFD0F4BA6
:10326000002B00D098470E4B002B00D09847002031
:10327000002104000D000D48002802D00C48AFF3D7
:1032800000800BF0F9FC2000290006F0A3F90BF0F8
:10329000DFFC00BF0000080000000120000000006B
:1032A0000000000070230020AC310020000000006E
:1032B00000000000F0B595B0002415460F46084602
:1032C0001E4604F0F7F8384623460895082205A95B
:1032D0001A9D09960D950A948DF82C400C9404F0D3
:1032E0004FF99DF814308DF81040DDE9061003F019
:1032F0000302012A0290ADF80C102BD0022A04D050
:10330000384604F0E7F815B0F0BDBDF81650C3F329
:10331000C202C3F38003AD098DF80E208DF80F3083
:103320000826082D2C4628BF0824334622460EA91D
:10333000384604F025F92D1B214608AB02AA0EA839
:10334000264400F06BFE002DEBD1384604F0C2F8A5
:1033500015B0F0BDBDF814500598C5F38315C3F33F
:10336000C20CAA000EA9C3F38004C0F3952608235B
:1033700038468DF80EC08DF80F4004F001F908AB07
:103380002A4630460EA9009302AB00F0AFFD384646
:1033900004F0A0F815B0F0BD014B01221A7070477F
:1033A000D0230020704700BF70B50E4D0E4888B086
:1033B00005F07EF80FCD6C460FC495E80F0008AD00
:1033C000062645F8206D84E80F00294600220648AD
:1033D00004F086FF08B100F0AFFF044B00221A7022
:1033E00008B070BD8CF00200E02000208C2300208B
:1033F00000B583B0044B0093044A4023FFF75AFF03
:1034000003B05DF804FB00BF1134020090230020DC
:1034100010B5094C09480023D2B2237005F0CCF84E
:1034200030B9074B1B7813B12378002BFCD010BDAB
:1034300000F082FFF5E700BFD0230020E02000204D
:103440008C23002070B50D4D0FCD88B06C460FC495
:1034500095E80F0008AD062645F8206D84E80F00BA
:103460002946074A074804F03BFF08B100F064FF13
:10347000054B01221A7008B070BD00BF8CF002002D
:1034800099330200E02000208C23002010B5054C69
:10349000FFF7D8FF2046042100F0E6FC0123637209
:1034A00010BD00BFE82000202DE9F047824C00232A
:1034B00084B0C4F81834BFF34F8FD4E9017607EA1B
:1034C0000601CB1C04EB830214F8233098073D4619
:1034D0000FD1138852889B0903EB921301331D44CB
:1034E00006EA0501CB1C04EB830214F823309B078A
:1034F000EFD004EB81016A1CCB680193324004EBEE
:10350000820203F00303D2680292022B05F1020843
:103510000FD0012B75D0032B06D02068C01B18BF1D
:10352000012004B0BDE8F087D4F818040028F4D1D5
:10353000F7E7BDF8063061484FEA93194D46502D24
:1035400028BF502565F38F1305F10801ADF806304B
:1035500003F06EFF0746002851D026EA080A0AF158
:10356000010A03F0A7FF4FEA8A0A0023082201A9F3
:10357000384603F0D7FF554540F29080EBB2BAF1E0
:10358000000F00F0848006EA0801A3EB0A03033170
:1035900004EB8101DDB252460823384603F0C2FF36
:1035A0002A460AF108034649384603F0BBFF09F1F1
:1035B000030908EB9909D4F81834002B62D1D4F828
:1035C000105455B16B7A28463946002B56D02B68DB
:1035D0001B6898476D68002DF4D1384603F07AFFD8
:1035E00004A8002300F80D3D01F0D4FBD4F81834F2
:1035F0000BB9C4F804909DF8030001F0F1FB676873
:103600008BE7BDF804302D48C3F38311062928BF8A
:10361000062161F3891302318900ADF8043003F00B
:1036200007FF07460028EAD003F044FF00230822E2
:1036300001A9384603F076FFBDF8043013F4707F1B
:1036400037D06FF0010AAAEB050A082506EA08013F
:1036500003312B46042204EB8101384603F062FF5C
:10366000BDF8043008F101090AEB0902C3F3831322
:103670009A42C84605F10405E8D39CE76D68002D21
:10368000A0D1AAE7384603F025FF676845E72A4638
:1036900008230B49384603F045FF88E706EA08018E
:1036A000033104EB81012A460823384603F03AFF30
:1036B0007DE7C1467FE700BFD4230020B8F00200B9
:1036C000E023002008B50E4B0E480022FF21C3F86E
:1036D00018249960C3E90022C3F8142483F81C2439
:1036E00003F0A4FE58B90849084BC91AC90806D006
:1036F000074A034622F80C3B01339942FAD108BD30
:10370000D4230020B8F00200B0FC020060FC0200EC
:10371000E422002021B9134A02EBC0000068704780
:1037200030B411490F4C091BC90816D00F4B5A88E9
:10373000824218BF002205D111E0DD89854203F1E4
:103740000C0305D001329142F7D1002030BC704704
:1037500004EBC200006830BC70470846F6E720461C
:10376000F8E700BF60FC0200B0FC0200E422002089
:10377000094B013903EBC00003290BD8DFE801F046
:1037800002080604022070474079704700797047AC
:10379000042070470020704760FC02002DE9F04FC4
:1037A00089B008AB002703F80D7D604C02901846E5
:1037B000A3680193039101F0EDFAD4E901E0D4F894
:1037C000008000EB0E030133A3EB0803032B60D84A
:1037D00000F1010AAAEB080A04F5836C04F214460E
:1037E00000EA0E0901255CE8003F43EA05024CE8C7
:1037F000002191F0000FF6D156E8003F43EA0502A0
:1038000046E8002191F0000FF6D109F1030304EB23
:10381000830114F823309B07CB46724610D10B88E6
:1038200049889B0903EB911301331A4400EA020B08
:103830000BF1030304EB830114F823309B07EED054
:1038400004EB8B0B0232DBF80C30059303F003031F
:10385000012B65D0022B05D1BDF816309B0903332F
:1038600002EB930256E8003F03EA070146E8001B1B
:103870009BF0000FF6D143B10AEB0203032B626009
:1038800007D8964600EA0209ADE70AEB0E03032BC0
:10389000A9D908EA0000C31C08F1020114F823208A
:1038A0009DF8130042F0030204F82320216001F088
:1038B00097FA019A029908F10103134004EB83037C
:1038C00002EA080808F103080A0CDA6014F8283044
:1038D0000A0962F3820361F3C50304F8283034F85F
:1038E0002830039A6FF3891324F8283054F82830CD
:1038F00062F39F231A46012161F3010244F8283044
:1039000004F8282094F81C341BB906E0FFF7CCFD1E
:1039100018B1D4E900329A42F8D109B0BDE8F08F6D
:10392000BDF81430C3F383131A449BE7D42300205B
:103930002DE9F04F89B008AB002703F80D7D644CEA
:1039400001901846A3680093CDE9021201F022FA13
:10395000D4E901E0D4F8008000EB0E030133A3EBBF
:103960000803042B60D800F1010AAAEB080A04F549
:10397000836C04F2144600EA0E0901255CE8003F5E
:1039800043EA05024CE8002191F0000FF6D156E819
:10399000003F43EA050246E8002191F0000FF6D10E
:1039A00009F1030304EB830114F823309B07CB4692
:1039B000724610D10B8849889B0903EB91130133A0
:1039C0001A4400EA020B0BF1030304EB830114F821
:1039D00023309B07EED004EB8B0B0232DBF80C306C
:1039E000059303F00303012B6CD0022B05D1BDF826
:1039F00016309B09033302EB930256E8003F03EABB
:103A0000070146E8001B9BF0000FF6D143B10AEB1B
:103A10000203042B626007D8964600EA0209ADE76C
:103A20000AEB0E03042BA9D908EA0000C31C08F115
:103A3000030114F823209DF8130042F0030204F858
:103A40002320216001F0CCF900990198039D08F131
:103A5000020208F101030A400B4004EB820204EB6E
:103A6000830301EA080808F10308010CD560D96056
:103A700014F82830020962F3820360F3C50304F8E6
:103A8000283034F82830029A012161F3891324F890
:103A9000283054F8283062F39F231A4661F301025C
:103AA00044F8283004F8282094F81C341BB906E0A8
:103AB000FFF7FAFC18B1D4E900329A42F8D109B004
:103AC000BDE8F08FBDF81430C3F383131A4494E7B4
:103AD000D42300202DE9F04F8BB00AAD00276A4CAB
:103AE00005F80D7D029005932846A3680193CDE962
:103AF000031201F04FF9D4E901E0D4F8008000EBA3
:103B00000E030133A3EB0803052B60D800F1010A73
:103B1000AAEB080A04F5836C04F2144600EA0E09C5
:103B200001255CE8003F43EA05024CE8002191F0E2
:103B3000000FF6D156E8003F43EA050246E80021AF
:103B400091F0000FF6D109F1030304EB830114F89F
:103B500023309B07CB46724610D10B8849889B09BE
:103B600003EB911301331A4400EA020B0BF1030338
:103B700004EB830114F823309B07EED004EB8B0B8E
:103B80000232DBF80C30079303F00303012B74D0EF
:103B9000022B05D1BDF81E309B09033302EB9302C3
:103BA00056E8003F03EA070146E8001B9BF0000FC0
:103BB000F6D143B10AEB0203052B626007D89646A3
:103BC00000EA0209ADE70AEB0E03052BA9D908EAC2
:103BD0000000C31C08F1040114F823209DF81B0009
:103BE00042F0030204F82320216001F0F9F8019863
:103BF000029D049E08F1020108F1030208F101038D
:103C000001400240034004EB810104EB820204EB1B
:103C1000830300EA0808CE6008F103080599D16023
:103C2000280CD86014F828302A0962F3820365F35F
:103C3000C50304F8283034F82830022262F38913CF
:103C400024F82830039A54F8283062F39F231A4648
:103C5000012161F3010244F8283004F8282094F887
:103C60001C341BB906E0FFF71FFC18B1D4E9003281
:103C70009A42F8D10BB0BDE8F08FBDF81C30C3F309
:103C800083131A448CE700BFD42300202DE9F04FA2
:103C90008BB06E4C05930AAD002705F80D7DA66824
:103CA000CDE901602846CDE9031201F073F8D4E9AB
:103CB00001E0D4F8008000EB0E030133A3EB08030E
:103CC000062B60D800F1010AAAEB080A04F5836C00
:103CD00004F214460EEA000901255CE8003F43EABD
:103CE00005024CE8002191F0000FF6D156E8003FA4
:103CF00043EA050246E8002191F0000FF6D109F1F0
:103D0000030304EB830114F823309B07CB46724670
:103D100010D10B8849889B0903EB911301331A4496
:103D200000EA020B0BF1030304EB830114F82330C8
:103D30009B07EED004EB8B0B0232DBF80C300793C1
:103D400003F00303012B7BD0022B05D1BDF81E30FD
:103D50009B09033302EB930256E8003F03EA070195
:103D600046E8001B9BF0000FF6D143B10AEB0203BB
:103D7000062B626007D8964602EA0009ADE70AEB17
:103D80000E03062BA9D908EA0000C31C08F105019F
:103D900014F823209DF81B0042F0030204F82320AE
:103DA000216001F01DF8019D059E08F102002840E8
:103DB00008F1030108F1040208F1010304EB80009B
:103DC00029402A402B4005EA0808049DC56004EB01
:103DD0008101029DCE6004EB820204EB830308F1B3
:103DE00003081499D160280CD86014F828302A09E7
:103DF00062F3820365F3C50304F8283034F82830F1
:103E0000032262F3891324F82830039A54F82830E7
:103E100062F39F231A46012161F3010244F828301E
:103E200004F8282094F81C341BB906E0FFF73CFB8B
:103E300018B1D4E900329A42F8D10BB0BDE8F08F46
:103E4000BDF81C30C3F383131A4485E7D423002044
:103E5000044BD3E900239A4201D0FFF725BB002091
:103E6000704700BFD423002030B4154DD5F810445E
:103E7000002154B1237A8B4213D0234602E01A7AF0
:103E80008A420ED05B68002BF9D10172D5F810344C
:103E90007BB15B684360D5F81034586030BC08468D
:103EA000704701310A29E4D14FF0FF31084630BC98
:103EB0007047C5F81004436030BC0846704700BF27
:103EC000D423002038B5084BD3F81044012583F8DB
:103ED0001C543CB12368657220465B68984764684F
:103EE000002CF7D138BD00BFD42300202DE9F047C6
:103EF00084B01D460C9C002394F80C802373EB794E
:103F000081460E461746DBB1062F09D8DFE807F0D9
:103F10000430363D46515E004946204602F0E2FB41
:103F2000EB792BB92B7AEBB93649204602F0DAFB54
:103F3000204602F0CBFB84F80C8004B0BDE8F0878B
:103F40002B7AA888A979002B4FD12F4B53F821A0A9
:103F50000021FFF7DFFB524603462C49204602F0C2
:103F6000C1FBD1E72A4A2B49204602F0BBFBDBE725
:103F700032684946204602F0B5FBD1E74946D6E90A
:103F80000023204602F0AEFBCAE7B168D6E9002361
:103F900020460091494602F0A5FBC1E7D6E902019F
:103FA000D6E90023019100904946204602F09AFB91
:103FB000B6E7D6E90371B068D6E900230291CDE9EE
:103FC00000074946204602F08DFBA9E7D6E9041018
:103FD000D6E900230390D6E902070291CDE9000754
:103FE0004946204602F07EFB9AE7FFF7C1FB0A4BE9
:103FF000084953F82020204602F074FBA979A888CC
:10400000A3E700BF20F1020024F102000CF102003E
:1040100018F1020008F10200D0F0020008295CD873
:104020002DE9F04F1D46914600232A7B2B7383B068
:1040300099F80730019207460E46002B4ED0DFF864
:1040400008B1DFF80881002405E03A5D013402F090
:1040500049FB082C09D0A64241462846F5D85946C6
:10406000013402F03FFB082CF5D13049DFF8E08045
:10407000DFF8E0B0284602F035FB002411E017F825
:1040800004A00AF01DFE50445946437813F0970FE0
:1040900014BF52462E222846013402F023FB082C7E
:1040A00008D0A64241462846E9D8013402F01AFB5E
:1040B000082CF6D199F8073013B999F808300BBBE2
:1040C0001B49284602F00EFB284602F0FFFA9DF835
:1040D00004302B7303B0BDE8F08F704799F80830B7
:1040E000B9F8040099F8061093B9124B53F821401F
:1040F0000021FFF70FFB224603460F49284602F036
:10410000F1FA9CE70D4A0E49284602F0EBFAD7E790
:10411000FFF72EFB0B4B0A4953F82020284602F0EC
:10412000E1FA99F80610B9F80400DEE700F10200A0
:1041300020F1020024F102000CF1020018F102004B
:1041400008F10200D0F00200FCF00200F4F00200DE
:1041500014F1020004F102002DE9F84F254B93F809
:1041600000C0BCF1000F31D0DFF88CB0DFF88CA0BC
:10417000DFF88C900024012703E00134E4B26445A9
:1041800024D226B2DBF80050DAF8003015F83600F9
:1041900007FA00F10B4205EBC608EED023EA010353
:1041A000CAF8003003F0EEFD15F83660D9F800309B
:1041B00007FA06F52B4000FA06F18B4208D00D4BAA
:1041C000013493F800C0E4B26445DAD3BDE8F88F57
:1041D00098F80110D8F80430A1F10101B1FA81F189
:1041E0004909091AB1FA81F14909002BE7D0304693
:1041F0009847E4E7C4280020F4280020F028002095
:10420000EC28002070B50646114800F089FD40B941
:10421000104D01242B68B440234203D023EA040448
:104220002C6070BD304603F0ADFD0B490A6860B1EB
:1042300022432B6809480A601C4301682C6004482B
:104240000022BDE8704000F015BD22EA0402F0E74C
:10425000CC280020F0280020EC280020C8280020CE
:10426000042A34D92DE9F04182B00F46064614469F
:1042700003F04EFC002834D01C4A1D4B1D4916602B
:104280001F701D4A1D4B0C6000257C1E15601D60B3
:10429000E4B2F7B106EBC404194F083E4FF003082F
:1042A00001E0B44215D0A37820788DF804803A4616
:1042B00001A98DF806508DF807508DF8053003F0F0
:1042C00031FC083C0028ECD002B0BDE8F0810720AA
:1042D00070470C4A0C48002100F0BAFC02B0BDE85F
:1042E000F08103F0DBFB0028C6D0EDE7F4280020C6
:1042F000C4280020C8280020EC280020F028002036
:10430000054202005941020098F1020070B5084DC3
:104310002B785BB1074E00243368012113F8340079
:1043200003F0CEFC2B780134A342F5D8002070BDF9
:10433000C4280020F428002000B585B00023039095
:10434000194601AA44F20100ADF80430029300F0CE
:1043500003F805B05DF804FB10B5FFF7B3FDFFF7F8
:1043600077FD0028FBD1104C10492088000440F054
:104370000100FFF713FA0E4B1B68DB0700D5FFDEC9
:1043800020880C49000440F00200FFF707FABFF351
:104390004F8F0949094BCA6802F4E0621343CB60AE
:1043A000BFF34F8F00BFFDE7E42200209CF1020025
:1043B000F0ED00E0A8F1020000ED00E00400FA05D5
:1043C000F8B5204A204B0024C2F84041C2F84441CD
:1043D000C2F84841C2F84C41C2F80041C2F8044159
:1043E0001B6833B31949D2F804550A68AD1A1A6824
:1043F00025F07F45AA4227460DD8197CDE69AD1A03
:10440000144419B11F74D3E9052090471EB13346F7
:104410001A68AA42F1D90E490E4A0B7812789A42CC
:1044200008D00D490D4A41F823404FF48013C2F8DB
:104430000031F8BD531CDBB2022B08BF00230B7008
:10444000EFE700BF00100140182A0020142A0020C6
:10445000112A0020102A0020082A002000E100E094
:104460002DE9F04FAF48B04AB04913780978D0F839
:104470000090AF4889B000680290994200F04E81E8
:104480000133DBB2022B08BF00231370A94A52F894
:104490002300A44B09EB000727F07F471F60029B16
:1044A00000252A462C46AC46B3B11968814200F279
:1044B0004D81DD68C3F800C0401A0C44D9693DB194
:1044C00009EB040626F07F46C3E90165DA611A4666
:1044D0000B460125002BE8D1002D40F09B810123E4
:1044E00002990693B946944B944C1B7805934FF070
:1044F00000084B46CDF81C80CDF80C804FF0010E23
:10450000C1468C469B4642B3D2E901651346D26947
:104510008B48A6EB0B0121F07F41814259D82944F9
:104520001960002083F810E0C3E90100D861BCF1F4
:10453000000F72D0DCF8000088425FD2664603E0CC
:104540002868884263D22E46F569091A002DF7D1F2
:104550001960DD61F361002AD6D1CA46CDF804B0F6
:1045600094F8019021784FF0000B1646894576D0DB
:10457000084600EB400004EBC0004A1CA378D1B20F
:10458000027921708B4204BF84F800B00021022A16
:10459000836853D0032A44D0012AE7D11F7C002F1F
:1045A000E4D13246C6685E6005699D604169D960A4
:1045B000816999610599DDF804B0D1460029A7D039
:1045C0003E46A6EB0B015E485F6021F07F418142D1
:1045D000A5D9ABEB060121F07F41A94202D2691AAD
:1045E00019609EE7002183F810E0C3E9001199608B
:1045F000D961BCF1000F10D0DCF80000411ACCF8F2
:1046000000104FF00108C3F81CC09C467BE7401A1D
:1046100028601960DD61F3619DE79C464FF0010859
:1046200071E7BCF1000FA1D0624600231374D26978
:10463000002AFBD194464FF0010891E7BCF1000F2E
:1046400009D06345624603D192E083424FD00246CF
:10465000D0690028F9D183F810B0894588D1C346C4
:10466000DDF80490D046BBF1000F40F0D780079BE7
:10467000002B40F01A82B8F1000F03D02E4B9DF8AA
:1046800014201A702A4B1A68039B1BB9029B9A428A
:1046900000F0C880002A00F0CC802A48214BD0F8D6
:1046A00004151B68284C15682678CA1A22F07F4228
:1046B0000332002E00F0A68195422CBF5B199B1897
:1046C000204823F07F43C0F84035D0F80425521A23
:1046D0005B1A22F07F4223F07F4303329A4200F2BA
:1046E0004781154A0023137009B0BDE8F08F93424B
:1046F00036D0674604931D46E8692D68D06128B11D
:1047000002682A440260217894F801906745A2D09B
:104710000122BC46039283F810B09EE70022069265
:104720000146E0E6142A0020102A0020112A002069
:10473000182A0020082A0020042A0020F828002037
:10474000FEFF7F0000100140052A0020002D40F0F0
:10475000B081091A19600123B94606930299C2E68D
:104760000493DCF81C7037B14FF00108049DC3E7D7
:10477000CDF810C0F5E77748774DC0F808E07748E6
:104780004FF02F08006800BF00BF00BF00BF00BF90
:1047900000BF00BF00BFA8422FD000BF00BF00BFB6
:1047A00000BF00BF00BF00BF00BF00BF00BF00BF11
:1047B00000BF00BF00BF00BF00BF00BF00BF00BF01
:1047C00000BF00BF00BF00BF00BF00BF00BF00BFF1
:1047D00000BF00BF00BF00BF00BF00BF00BF00BFE1
:1047E00000BF00BF00BF00BF00BF00BF00BF00BFD1
:1047F00000BF00BF00BF00BF00BFB8F10108C2D1B9
:104800004FF0010A0197CDF814A0CDF81CA0D046B6
:10481000049D71E7524902930B6060E6504BC3F868
:1048200000C024E7069B002B3FF45BAF002A7FF417
:1048300034AF48494B4B494E474C4FF480304FF40E
:1048400000370125C3F88070C1F848032F23C1F851
:1048500008034D6030681E4600BF00BF00BF00BFA8
:1048600000BF00BF00BF00BFA0422FD000BF00BFED
:1048700000BF00BF00BF00BF00BF00BF00BF00BF40
:1048800000BF00BF00BF00BF00BF00BF00BF00BF30
:1048900000BF00BF00BF00BF00BF00BF00BF00BF20
:1048A00000BF00BF00BF00BF00BF00BF00BF00BF10
:1048B00000BF00BF00BF00BF00BF00BF00BF00BF00
:1048C00000BF00BF00BF00BF00BF00BF013EC3D19B
:1048D0008D6025490A6000BF00BF00BF00BF00BF58
:1048E00000BF00BF00BFA0422FD000BF00BF00BF6D
:1048F00000BF00BF00BF00BF00BF00BF00BF00BFC0
:1049000000BF00BF00BF00BF00BF00BF00BF00BFAF
:1049100000BF00BF00BF00BF00BF00BF00BF00BF9F
:1049200000BF00BF00BF00BF00BF00BF00BF00BF8F
:1049300000BF00BF00BF00BF00BF00BF00BF00BF7F
:1049400000BF00BF00BF00BF00BF013BC3D1074B8A
:104950001A70C6E6001001400024F400082100206F
:10496000182A002000E100E0142A0020052A002077
:10497000D0F80435514AC0F84035126850492F2309
:1049800000BF00BF00BF00BF00BF00BF00BF00BF2F
:104990008A422FD000BF00BF00BF00BF00BF00BFD2
:1049A00000BF00BF00BF00BF00BF00BF00BF00BF0F
:1049B00000BF00BF00BF00BF00BF00BF00BF00BFFF
:1049C00000BF00BF00BF00BF00BF00BF00BF00BFEF
:1049D00000BF00BF00BF00BF00BF00BF00BF00BFDF
:1049E00000BF00BF00BF00BF00BF00BF00BF00BFCF
:1049F00000BF00BF013BC3D1324B4FF40032C3F8BC
:104A000000216EE62F4EDFF8B4E0DFF8B4C04FF4BB
:104A10008037C0F84473C0F804734FF40037C6F809
:104A20008071376001260660DEF800702F2000BF1D
:104A300000BF00BF00BF00BF00BF00BF00BF674591
:104A40002FD000BF00BF00BF00BF00BF00BF00BF2E
:104A500000BF00BF00BF00BF00BF00BF00BF00BF5E
:104A600000BF00BF00BF00BF00BF00BF00BF00BF4E
:104A700000BF00BF00BF00BF00BF00BF00BF00BF3E
:104A800000BF00BF00BF00BF00BF00BF00BF00BF2E
:104A900000BF00BF00BF00BF00BF00BF00BF00BF1E
:104AA00000BF0138C3D1267006E6074BC3F800905B
:104AB000E1E5064C029323604BE600BF082100208D
:104AC0000024F40000E100E0142A0020182A00204D
:104AD000F0B4554B554A564E564C4FF480304FF477
:104AE00000310125C2F88010C3F848032F21C3F814
:104AF00008035D6030680E4600BF00BF00BF00BF06
:104B000000BF00BF00BF00BFA0422FD000BF00BF4A
:104B100000BF00BF00BF00BF00BF00BF00BF00BF9D
:104B200000BF00BF00BF00BF00BF00BF00BF00BF8D
:104B300000BF00BF00BF00BF00BF00BF00BF00BF7D
:104B400000BF00BF00BF00BF00BF00BF00BF00BF6D
:104B500000BF00BF00BF00BF00BF00BF00BF00BF5D
:104B600000BF00BF00BF00BF00BF00BF013EC3D1F8
:104B70009D6000BF00BF00BF00BF00BF00BF00BFFF
:104B800000BFA0422FD000BF00BF00BF00BF00BFCA
:104B900000BF00BF00BF00BF00BF00BF00BF00BF1D
:104BA00000BF00BF00BF00BF00BF00BF00BF00BF0D
:104BB00000BF00BF00BF00BF00BF00BF00BF00BFFD
:104BC00000BF00BF00BF00BF00BF00BF00BF00BFED
:104BD00000BF00BF00BF00BF00BF00BF00BF00BFDD
:104BE00000BF00BF00BF0139C3D1134E134C14499D
:104BF000144D154F00203070206008704FF4801461
:104C00000B26E0212880AE703870104DC2F880412C
:104C100082F814131460C3F8080582F81113D3F84E
:104C200004352B60F0BC70470010014000E100E04B
:104C3000082100200024F400052A0020182A002062
:104C4000102A0020F8280020112A0020142A002011
:104C5000074B9B784BB132B128B10368187C20B95F
:104C600059745A617047072070470820704700BF89
:104C7000F82800202DE9F047264CA37882B0002BBD
:104C80003CD000283AD004293CD94369002B35D0C8
:104C9000814602A899F811300026012B00F8016D19
:104CA0000CBF8846B04617468A4600F073F8637812
:104CB000A17822789DF807005D1CEDB2A94208BFDB
:104CC0003546AA4222D003EB430304EBC303012180
:104CD000114AC3F808901971D2F804256570C3E928
:104CE000032AC3E9058700F07BF80C4B4FF48012D0
:104CF0003046C3F8002102B0BDE8F087082002B0BA
:104D0000BDE8F087072002B0BDE8F08700F068F842
:104D10000420F0E7F82800200010014000E100E046
:104D2000F0B51A4CA37883B043B338B343692BB3BF
:104D3000064602A8002500F8015D357400F02AF847
:104D40006278A77821789DF80700531CDBB29F4258
:104D500008BF2B46994214D002EB420204EBC20278
:104D6000022196601171637000F03AF8084B4FF41D
:104D700080122846C3F8002103B0F0BD082003B01C
:104D8000F0BD00F02DF80420F9E700BFF82800205E
:104D900000E100E070B4EFF3108472B60D4B9A6836
:104DA000AAB90D490D4E01259D60D1F880503540BE
:104DB0001D60C1F88060D1F884505D604FF0FF3312
:104DC000C1F88430027004B962B670BC7047012328
:104DD0000370F8E7A031002000E100E0FC06FFBD11
:104DE000094B9A687AB170B910B4EFF3108272B6B9
:104DF00006491C680C605C684C60986002B962B639
:104E00005DF8044B70477047A031002000E100E0DE
:104E1000F0B443681BB1384AD468A34246D2002399
:104E2000364F0B807A684FF0010C02F580544FF634
:104E3000FF76083294420ED8BCF1020FA1F800C0F0
:104E400007F1140754D07A6802F58054083294426E
:104E50004FF0020CF0D913680133EDD053880333BF
:104E600002EB83039C42E7D39588B5420AD01588AC
:104E700045B1956803689D4211D05388033302EB16
:104E80008302D7E79C42D7D91A6801321A46D3D099
:104E90005D88033503EB85039C42E5D2CCE7184BD4
:104EA00042601B8903810120F0BC70471269934264
:104EB000B5D813F00305B2D1114A0489128994427E
:104EC000ADD104689A689442A9D10C4842689342D3
:104ED00003D902F58052934207D38269934207D9DE
:104EE00002F58052934203D201250D800120DBE7B9
:104EF0000020F0BC704700BF5C2300205C2A00202B
:104F0000402A0020F0B5334C334DB4F802C062683B
:104F10004FEA8C0606EB0C0305EB830383B059685C
:104F200001F58050002A52D05388033302EB8302EC
:104F3000904213D8664405EB8605EB68002B3DD004
:104F4000264B2748196802229A8005250023012252
:104F5000257003B0BDE8F04001F074BF1368013361
:104F6000E8D05388033302EB83038342E2D84FF641
:104F7000FF7E9788774514D0178897B16260538871
:104F8000164D1748AE882968033300259BB200955B
:104F90009B0001EB86010325257001F01FFF03B084
:104FA000F0BD9842C6D91A6801321A46C2D05F884D
:104FB000033703EB87039842DBD2BBE7084804259D
:104FC0000122257003B0BDE8F04001F03BBF01F1C4
:104FD0000802ADE7402A00205C2A0020242B002094
:104FE0005C2300202DE9F04FDFF8D88289B0074616
:104FF0004FF6FF79D8F80040002C00F0D8802278D6
:10500000531E052B55D8DFE803F0472B2B19190346
:10501000002F40F0C480A14C227B2378002A00F0AE
:105020002F81013B2773062B43D8DFE813F0A10340
:10503000AE02EE01C9014200D702B202002F40F0D9
:10504000AE802379012B00F03F81C0F0D580022B88
:105050002FD103AD28461422394609F06BFE2FE00C
:10506000A58A8F4E4FEA850A0AEB050306EB8303F8
:105070001889002F40F0A3805F68A37D07EB8007AD
:10508000062B00F28883DFE813F01D022B023D029D
:105090005102D30102021A02002F40F0A2802379AC
:1050A000032B00F2E280DFE813F0590168017D0173
:1050B0003B0103AD28461422002109F03BFE0F27D7
:1050C000D8F8002004971378013B052B07D8DFE8B8
:1050D00003F053573F33280305238DF80C30714CF0
:1050E00004F1100654F8043B284603B19847A64241
:1050F000F8D100236C496D48C8F8003001F076FA09
:105100006B4B012253E8000FA0EB020143E80014AF
:1051100094F0000FF6D100297FF46CAF09B0BDE820
:10512000F08F04238DF80C30D388ADF818300023AD
:10513000ADF81A300593D2E703238DF80C30D388ED
:10514000ADF818301389ADF81A30D3680593C6E767
:1051500002238DF80C301389ADF818309388ADF820
:105160001A30D3680593937DA3F10603B3FA83F352
:105170005B098DF81C30B2E700238DF80C30AEE7E8
:1051800001238DF80C301389ADF818309388ADF8F1
:105190001A30D368059300238DF81C309FE703ADC8
:1051A00028461422002109F0C5FD012788E73E4961
:1051B0003E4801F0EDF90446C8F800001FE7E28818
:1051C0005C89C2F57F41FD3103320244214403ADC5
:1051D0001A81598128461422002109F0ABFD0127CC
:1051E0006EE7344A002303AD536019462846142263
:1051F00009F0A0FD012763E702232371CDE90477BD
:1052000003ADE368039328460DF10A01FFF700FEA2
:10521000002800F0AA810499274A8B88E3800B8834
:105220002381264800970423BDF80A4001F0D6FDEB
:10523000002840F0A1821A4B04EB840403EB8404A1
:10524000012323746AE701239A001A4406EB8203C0
:10525000002059680090082306F82200184A1748D1
:1052600001F0BCFD00283FF459AF124A002303AD02
:10527000536019462846142209F05CFD0E271FE7EB
:10528000072B00F26082DFE813F0E9015E025E02A4
:105290007701D70184018401BB0100BF402A0020AF
:1052A0005C2A0020282A0020502A0020102B0020F1
:1052B000202B0020382A0020B8F102005C230020B7
:1052C000BCF10200582A0020B94B1B78002B00F0DB
:1052D0003F81DFF8E4C2BCF80450012D13D8B54E6D
:1052E00005EB850206EB8202043212F8043C002B27
:1052F00000F0D3816B1C99B201291D46ACF8043033
:1053000002F11402F1D908220021AB4803AD09F0E3
:1053100011FD28461422002109F00CFD0027CFE6DC
:10532000A64DA74A2968A748A24E0027277108233F
:10533000009701F053FDA44B2C685B88A98803EB10
:10534000830306EB830206F8237053682B60022365
:1053500054601181AB80002887D1DFE6974B9B4AD0
:10536000196898480123237100230093082301F052
:1053700035FD00287FF479AFD0E68E4E3378022BCE
:1053800000F00782337D022B3FF45DAF884B03AD05
:10539000012200211A702846142259600F4609F094
:1053A000C9FC8DE6854A87481168002323710224D1
:1053B0009480012201F046FD00287FF456AFADE64F
:1053C00063887C4E03EB830306EB8306F368002BB4
:1053D00000F0AB81794B7B48196802229A80052244
:1053E00022700023012201F02DFD0746002F3FF41B
:1053F00095AE03AD28461422002109F09BFC41F62E
:105400001D539F4208BF00275AE662686B485388C5
:10541000858801686B4801EB850103330025009501
:105420009BB203259B00257001F0D8FC0746DDE701
:10543000674BA26967491A604FF0000B1846C3F822
:1054400004B0FFF7E5FC002800F098810223A37563
:1054500004233946CDF800B0E2185A4801F0BEFCEA
:1054600000283FF45BAE0AEB050306EB83030E272F
:105470001889E388554406EB8506C3F57F41748996
:105480000333FD31C218214432817181B1E7514BA0
:105490004F4A1F8851684B484F4A00234FF0060C73
:1054A00084F816C00093042301F098FC0028DAD198
:1054B00007EB870706EB8706012333742EE641F6D8
:1054C0001D57D6E702230022A37504230092394614
:1054D000E2183C4801F082FC00283FF41FAEC2E70E
:1054E000032A14BF062305230022A375391D009249
:1054F000042304F10802334801F070FC00283FF453
:105500000DAEB0E723692F48002B0CBF0123032306
:105510000022A37507F108010092042304F10C0294
:1055200001F05CFC00283FF4F9AD9CE7E3882269B8
:1055300024484FF0010C07F10C01002784F816C035
:105540009B00009701F04AFC00283FF4E7AD8AE792
:1055500039460822184803AD09F0ECFB39462846C5
:10556000142209F0E7FB0227AAE50A2714220021EA
:10557000284609F0DFFBA3E5104A61689388498853
:1055800003330B44022193802170FFF7BBFC0746D5
:105590002CE70A4B0D4A19680A4800230093636000
:1055A00007232370082301F019FC07461EE700BFFC
:1055B000382A00205C2A0020342B0020242B0020D5
:1055C000BCF102005C230020402A0020C4F102004C
:1055D0001C2A0020302B0020B8F1020062886F4E98
:1055E0009300134406EB83060620002371686C4A7F
:1055F0000093207008236B4801F0F0FB0746F5E6A6
:1056000001232370A37A33B1644EF3680022A2729F
:10561000002B00F09380E37A002B33D05F4E336A87
:105620000022E27273BB96F824305BB301236380DF
:10563000FFF768FC0746D9E66288584E5A4D93003A
:10564000991806EB810128684F68B5F804C04860D6
:1056500002202F60A1F808C0A880C2E74F4E218920
:10566000327D3378B2FA82F252090131B3FA83F310
:105670005B09E272218100220121A3726280227300
:105680002170C0E703AD00212846142221706180FB
:1056900061600F4609F04EFB12E51368DCF800105C
:1056A00003F5805003F1080E002963D04B880333C3
:1056B00001EB8301884202D8CCF800701AE60B682F
:1056C0000133F9D04B88033301EB83039842F3D3C2
:1056D000B1F804A0CA4519D0B1F800B0BBF1000F71
:1056E00014D0E388CCF800105345DDD1002300939B
:1056F0002E4A2C48042301F071FB002846D105EB0B
:10570000850506EB85060123337407E58342D3D272
:10571000196801311946CFD0B3F802A00AF1030A83
:1057200003EB8A039842D3D2C6E704222270716841
:105730001C48012201F086FB074657E6327C002A0E
:105740003FF469AF73E7013B062B3FF6B2AC01A211
:1057500052F823F0715702008B5502000B540200DF
:10576000C1530200B3500200DD5502009355020000
:10577000A37A48E771469DE70E27F7E603AD014699
:105780001422284609F0D6FA0A2799E40E2703AD19
:10579000ECE6002358E50F276BE600BF5C2A0020EB
:1057A000BCF102005C230020242B0020B8F1020091
:1057B0004068FFF717BC00BF0C4B1A68042A12D0D0
:1057C00010B40B491C68012241F8240053E8001F63
:1057D00001EB020043E8000494F0000FF6D1002032
:1057E0005DF8044B70470C20704700BF2C2B002045
:1057F000282A00202DE9F04FB24C8BB022780023EC
:10580000CDE90533CDE90733099372B1AE4C04F10C
:10581000100554F8043B05A803B19847A542F8D1F8
:10582000002630460BB0BDE8F08F02F0FF07231DC5
:10583000012253E8005F45EA020143E8001090F0BE
:10584000000FF6D1002DEBD14FF010234FF0805216
:105850005B6911695269DFF89082581C08BF02FB2E
:1058600001F3C8F810309949A3F54053404600228F
:10587000C8F80C3001F0AAFA06460028D1D11C2342
:105880008C2293499348DFF864B2DFF864A200F0F9
:1058900009FED8F80C00029700F540530321324668
:1058A00099468846002853D003688B498B424FD1D4
:1058B00043688A498B4200F0A78001318B4247D16F
:1058C000029B63B102EB820C0BEB8C0102270132CD
:1058D000DAF800300BF82C7092B24B600F818168BF
:1058E000CAF800004FF0020C0131AAF804C000F51C
:1058F000805300F1080728D04189033107EB81006C
:105900008342C0F025814FF6FF7E0192B888704532
:105910000AD0388840B1724AB8681268904203D9F8
:105920006F4A1060798803318C441FFA8CFCAAF806
:1059300004C07988033107EB8107BB4200F2FC8089
:10594000BCF1020F019A40F02A8104210D4319E0B5
:1059500000F58053014601E08B423AD00F680137D1
:1059600001F10401F8D002EB82010BEB81074FF04B
:10597000030C08F1FF3E01320BF821C01FFA8EF82C
:1059800092B27860994518468CD14346012B39D99B
:10599000EDB2022D36D0062D00F0E88095B304A9B3
:1059A0004C4800F0B9FD1C220446002109F0C2F960
:1059B000002C00F0F2800123013D23700A2D00F23B
:1059C0009B80DFE805F0B499B499B199B199AE978D
:1059D000AE00DAF80010002900F0C080414F02EB61
:1059E00082010BEB810C7A80022702F1010E0BF889
:1059F00021701FFA8EF2CCF80400ACF8087045F064
:105A00000105BFE70B260CE79300039313440BEB50
:105A1000830C00210BF823104FF00203ACF8083080
:105A2000CCF804008768013700F5805300F10801C5
:105A300042D0408900F1030E01EB8E0E734531D345
:105A400002270192E646B1F804C04FF6FF72944572
:105A500000F09B80B1F800C0BCF1000F00F0958011
:105A60001F4AD1F808C01268944505D91C4ABEF8EF
:105A70000870C2F800C0488807440337BFB2AEF8C8
:105A800008704888033001EB80018B4252D90868C6
:105A900001304FD0488800F1030C01EB8C0C6345BA
:105AA000D1D2019A039911440BEB81014FF480602C
:105AB0004FF001070F740881013292B245F00205E0
:105AC00060E700BF382A0020282A0020F0F10200F9
:105AD000842A0020102B0020DEC0ADDEFE011EF166
:105AE000542A0020402A00205C2300205C2A002049
:105AF000242B00200223237104A92A4800F038FD3A
:105B0000294B012253E8000F00EB020143E8001487
:105B100094F0000FF6D100287FF482AEFFF762FA0E
:105B20007FE603232371E7E701232371E4E70023E2
:105B30002371E1E7019ABFE7396801313FF400AF13
:105B40007988033107EB81008342BFF4DFAE019A0D
:105B50004FF48061AAF804100821F7E60221AAF8A0
:105B600004100121CAF80000029148E70F4D0122FC
:105B70000023227005F11006636055F8043B05A868
:105B800003B19847AE42F8D14AE64FF001028EF8D1
:105B900010204888BEF808706EE7082641E6082104
:105BA000D4E600BF102B0020202B0020282A002044
:105BB00020B319B3F0B583B00C460DF106010546CC
:105BC000FFF726F9E0B1BDF806200F4B696802EB3C
:105BD000820203EB82030C33012253E8000F00EB37
:105BE000020643E8006797F0000FF6D121606B686A
:105BF00000200C336360AA7203B0F0BD052070472B
:105C00000A2003B0F0BD00BF5C2A0020E8B110B547
:105C100082B00DF106010446FFF7FAF890B1BDF825
:105C200006300C4A03EB830302EB8303DA6872B19C
:105C3000A27A62B1DA680021013A0846DA60A172FC
:105C400002B010BD0A2002B010BD0520704706202A
:105C500002B010BD5C2A00201E4B1B78C3B1D0B12E
:105C6000CB1C9BB240F2FD32934222D8F0B41A4AC8
:105C700016783EB9558914892C441C44A4B2B4F555
:105C8000806F19D3147D4CB107231846F0BC7047C0
:105C9000022318467047052318467047D58B948B0E
:105CA0002C441C44A4B2B4F5806FEDD201263746D3
:105CB00003E00923184670473746BC003C4402EB1A
:105CC00084022B4453810680418000231846F0BC97
:105CD000704700BF382A00205C2A0020134B1A7836
:105CE000D2B1034600B30288022A17D810B4104874
:105CF000598802EB820200EB82028C1C508984429C
:105D00000EDAC1F57F41FD310024014451811C6050
:105D100020465DF8044B704702207047042070470E
:105D200004205DF8044B704705207047382A002096
:105D30005C2A0020504B1B78002B32D0002934D035
:105D40000A884FF6FF739A4229D04B883BB34B68C1
:105D50009B072CD12DE9F043B1F8088008F103032B
:105D60009BB240F2FD32934283B01CD8434A17786D
:105D70003FB9558914892C441C44A4B2B4F5806FF2
:105D800017D3147D3CB9D58B948B2C441C44A4B2FE
:105D9000B4F5806F6CD3072003B0BDE8F083042016
:105DA0007047022070470920F6E70520704703205E
:105DB0007047BC464FEA8C09E14402EB89092B4449
:105DC0000C46064601A92E48A9F80A3000F0A4FBAB
:105DD0001C220546002108F0ADFF002D3DD0022316
:105DE0004FF00009AF822B7085F8169063682B6125
:105DF0000122244B53E8000F00EB020143E8001797
:105E000097F0000FF6D1E96023882B816388AB807F
:105E100001A9A5F80680A5F80A90194800F0A8FB8A
:105E200046B1C6F80490EA68174B32601B8986F8C1
:105E30000A903381154B012253E8004F04EB020115
:105E400043E8001090F0000FF6D10CB10020A3E75A
:105E50002046FFF7C7F820469EE7B9F80A30C8F594
:105E60007F4808F1FD089844A9F80A80082093E7C4
:105E70000127BC469EE700BF382A00205C2A00208C
:105E8000102B0020542A0020402A0020202B002024
:105E9000002A5DD03D4B1B78002B57D0002957D0EE
:105EA0002DE9F0430C884FF6FF739C4283B053D02A
:105EB0004B88002B50D04F6817F003074AD10C468F
:105EC000064601A93248B2F80090B2F8028000F00C
:105ED00023FB1C220546394608F02CFF002D44D038
:105EE0000223AF75A5F814902B7063682B61012213
:105EF000284B53E8000F00EB020143E8001C9CF024
:105F0000000FF6D1E96023882B816388AB8001A95B
:105F1000A5F806806F811E4800F02AFB36B1776035
:105F2000EA681D4B32601B89B77233811B4B01221B
:105F300053E8004F04EB020143E8001090F0000F1B
:105F4000F6D16CB1002003B0BDE8F08302207047A9
:105F5000052070470320F6E7042003B0BDE8F08376
:105F60002046FFF73FF82046EDE70D4B09EB890986
:105F700003EB8909C8F57F48B9F80A3008F1FD0834
:105F80009844A9F80A800820DDE700BF382A0020DD
:105F9000102B0020542A0020402A0020202B002013
:105FA0005C2A0020002836D04F4B1B78002B30D0C5
:105FB000002930D00A884FF6FF739A422FD04B88C1
:105FC0006BB34B689B0728D12DE9F043B1F80890DB
:105FD00009F103039BB240F2FD32934283B020D813
:105FE000424A15783DB9578914893C441C44A4B2EF
:105FF000B4F5806F17D3147D3CB9D78B948B3C4498
:106000001C44A4B2B4F5806F6AD3072003B0BDE886
:10601000F08302207047052070470320704704205A
:1060200070470920F2E7A846AC464FEA8C05654464
:1060300002EB85053B4406460C462D486B8101A9C1
:1060400000F06AFA1C220746002108F073FE002FB8
:106050003CD003230025A7F814803B70BD7563680E
:106060003B614FF00108234B53E8001F01EB08028E
:1060700043E8002090F0000FF6D1FA6023883B81BE
:106080006388BB800423A7F80690BB753368BB61A7
:1060900001A97D81164800F06BFA7560FA68164B0D
:1060A00032601B893381B572144B53E8004F04EB07
:1060B000080243E8002191F0000FF6D10CB1284608
:1060C000A4E72046FEF78EFF20469FE76B89C9F5BF
:1060D0007F4909F1FD099944A5F80A90082095E740
:1060E0004FF00108C446A0E7382A00205C2A0020AF
:1060F000102B0020542A0020402A0020202B0020B2
:106100001B4B1B784BB34FF6FF73984223D070B5EF
:1061100082B001A90446174800F0FEF91C2205468A
:10612000002108F007FED5B1052301262B70EC8075
:1061300001A92E710F4800F01BFA0F4B53E8004FD6
:1061400004EB060243E8002191F0000FF6D14CB1B8
:10615000002002B070BD0420704702207047082064
:1061600002B070BD2046FEF73DFF204602B070BD74
:10617000382A0020102B0020202B00201A4B1B78DF
:106180001BB310B582B001A9184800F0C5F91C2254
:106190000446002108F0CEFDE4B10623237001A9D6
:1061A000124800F0E5F9124B1A7882B9114B01221E
:1061B00053E8004F04EB020143E8001090F0000F99
:1061C000F6D154B1002002B010BD02207047012268
:1061D0001A73EBE7082002B010BD2046FEF702FF5D
:1061E000204602B010BD00BF382A0020102B00202E
:1061F000402A0020202B00202DE9F043344C247845
:10620000002C60D03AB333B39F88012F5ED8314C55
:1062100007EB870C013704EB8C0CBFB24FF6FF7E07
:106220004FF000089CF8004074B91C68DCF804507A
:1062300005F58056002C43D06588033504EB8504B2
:10624000B4420BD3C3F80080022F9F800CF1140CD2
:106250003CD00227E6E70520BDE8F083256801353C
:10626000F0D06588033504EB8505AE42EAD3B4F877
:106270000490F14515D0B4F80090B9F1000F10D09A
:106280001C60A5888542D1D125888D42CED1A168D8
:1062900011601968104B51601B8913810020BDE803
:1062A000F083AE42CED92C6801342C46CAD0B5F862
:1062B000029009F1030905EB8905AE42D7D2C1E787
:1062C00005F10804BCE70220BDE8F0830A20C3E71B
:1062D000382A00205C2A0020402A0020334B1B78FB
:1062E000002B5CD051B34AB32DE9F0419588012DC4
:1062F0005AD82F4F05EB850307EB830701353B7811
:10630000ADB24FF6FF7C4FF0000E43B1022D9580E9
:1063100007F1140748D03B780225002BF6D113680B
:106320007C6804F58056002B3BD05C88033403EB7B
:106330008403B34204D3C2F800E0E7E705207047C6
:106340001C680134F7D05C88033403EB8404A64254
:10635000F1D3B3F80480E04512D0B3F80080B8F16F
:10636000000F0DD013601C888442D9D19B680B604C
:106370001268104B4A601B890B810020BDE8F08138
:10638000A642D8D9236801332346D4D0B4F802807A
:1063900008F1030804EB8804A642DAD2CBE7022016
:1063A000704704F10803C4E70A20E7E7382A002011
:1063B0005C2A0020402A0020334B1B78002B5CD045
:1063C00051B34AB32DE9F0419588012D5AD82F4F8A
:1063D00005EB850307EB830701353B78ADB24FF63C
:1063E000FF7C4FF0000E43B1022D958007F114079A
:1063F00048D03B780225002BF6D113687C6804F561
:106400008056002B3BD05C88033403EB8403B342FB
:1064100004D3C2F800E0E7E7052070471C680134A8
:10642000F7D05C88033403EB8404A642F1D3B3F8BD
:106430000480E04512D0B3F80080B8F1000F0DD011
:1064400013609C888442D9D19B680B601268104B02
:106450004A601B890B810020BDE8F081A642D8D993
:10646000236801332346D4D0B4F8028008F103082E
:1064700004EB8804A642DAD2CBE70220704704F18D
:106480000803C4E70A20E7E7382A00205C2A002036
:10649000402A002020B119B103680B60002070472A
:1064A0000520704799B110B4B2FBF3F403FB142438
:1064B000A4B244B9C0E9001484608281C38120463B
:1064C0005DF8044B704709205DF8044B70470E20BF
:1064D000704700BF82B050E8022FC188B2EB324F44
:1064E0004FF0000317BF92B241EA014142EA014175
:1064F00004E04268B2EB324F08BF012340E80212C9
:10650000002AE8D18DF807309DF80730002B0CBF2A
:106510001120002002B0704730B482B050E8013F33
:106520009DB2C48925448489A54228BF2D1B0489B6
:10653000A54202BFBFF32F8F002207E0C5EA030583
:1065400040E80154002CE9D14FF001028DF80320FE
:106550000193019B9DF803200B602AB10B88006812
:10656000184402B030BC704702F0FF031846F8E749
:106570000A884B889A4201D00020704750E8012FCA
:10658000C2EA024240E80123002BF7D10120704704
:1065900030B482B050E8023F1FFAA3F5C488A54288
:1065A00002BFBFF32F8F00220DE0C48925448489E8
:1065B000A54228BF2D1BC3EA054540E80254002C24
:1065C000E8D14FF001028DF803200193019B9DF863
:1065D00003200B602AB14B880068184402B030BC1D
:1065E000704702F0FF031846F8E700BF0A884B889F
:1065F0009A4201D00020704750E8022FC2EA22429E
:1066000040E80223002BF7D101207047B8B130B425
:10661000D0E90112521A0468D2B2531E2160DBB2D3
:1066200042B101680A685C1E551C0D601370E3B22C
:10663000FF2BF6D103680020187130BC70470E2084
:10664000704700BFF0B583B002AB002503F8015DD1
:1066500004461846FEF79EFBD4E900311A688A42C8
:1066600010D9511E19602168A3680F6812F8015CE7
:106670000A79268AE068DB1BDBB29A4206FB050535
:1066800038BF0B719DF80700FEF7AAFB284603B040
:10669000F0BD00BF30B583B002AB002203F8012D7E
:1066A000054618460C46FEF775FB2A681368591C08
:1066B0001160E9682A8A641AB4FBF2F41C709DF830
:1066C0000700FEF78DFB03B030BD00BF826842B10A
:1066D00010B5044643690168006998470023A36028
:1066E00010BD70470EB400B582B0039929B102AA5B
:1066F00004AB42F8043D00F08BF802B05DF804EB07
:1067000003B070472DE9F84F884690451746054677
:106710001E46DDE90AB175D343464FF00109B3FBCC
:10672000F7F39F4209F10109F9D9B14538BFB146E4
:1067300011F0010AAA6802D1BBF1000F43D1012474
:1067400002E0013E07FB04F4012EFAD8B8FBF4F195
:106750008F42F7D92D4E05E0B4FBF7F4A4B1B8FB96
:10676000F4F1AA68705C531CAB602B689854D5E9AF
:1067700001329A4204FB1188EED32846FFF7A6FFA8
:10678000B4FBF7F4002CEAD1BAF1000F15D0BBF13D
:10679000000F12D0CB4510D92024AB682A68591CB1
:1067A000A960D454D5E901329A420BF1FF3B06D2DD
:1067B000BBF1000F01D0CB45EFD1BDE8F88F2846E3
:1067C000FFF784FFF4E78B0717D42024CB45B6D915
:1067D0002B68511CA9609C54D5E901329A420BF1F7
:1067E000FF3B05D2BBF1000FA9D0CB45F0D1A6E706
:1067F0002846FFF76BFFAA68F4E7002E0CBF302491
:106800002024E3E74FF001098FE700BFD4F1020035
:10681000002900F0F4812DE9F04F054685B092463D
:106820000C460B78DFF8A0B501E0237893B1013472
:1068300083B1252B15D0AA682968501CA8608B54F9
:10684000D5E901329A42F0D32846FFF73FFF23787B
:10685000002BECD12B7B002B40F0148105B0BDE860
:10686000F08F2146002711F8012B2D2A00F0E1803E
:10687000302A00F0E2802B2A00F0D2802A2A00F091
:10688000E080A2F13006F3B2092B03D9B8E1A3F1FD
:1068900030060146084606EB860310F8012BA2F1EC
:1068A0003004092C02EB4303F1D92E2A00F0D580E5
:1068B0000023013101E011F8012B02F0FB006828F0
:1068C0000C46F8D0253A532AAFD801A151F822F04E
:1068D000916A02002B6802002B6802002B680200FC
:1068E0002B6802002B6802002B6802002B68020054
:1068F0002B6802002B6802002B6802002B68020044
:106900002B6802002B6802002B6802002B68020033
:106910002B6802002B6802002B6802002B68020023
:106920002B6802002B6802002B6802002B68020013
:106930002B6802002B6802002B6802002B68020003
:106940002B6802002B6802002B6802002B680200F3
:106950002B6802002B6802002B6802002B680200E3
:106960002B6802002B6802002B6802002B680200D3
:106970002B6802002B6802002B6802002B680200C3
:106980002B6802002B6802002B6802002B680200B3
:106990002B6802002B6802002B680200AB6A020021
:1069A0002B6802002B6802002B6802002B68020093
:1069B0002B6802002B6802002B6802002B68020083
:1069C0002B6802002B680200C56A0200E76A020019
:1069D0002B6802002B6802002B6802002B68020063
:1069E000E76A02002B6802002B6802002B68020095
:1069F0002B6802002B6802002B680200376B020034
:106A00002B6802002B680200AB6B02002B680200AF
:106A1000E56B02002B6802002B680200AB6A0200E3
:106A200047F004070C46214611F8012B2D2A7FF46C
:106A30001FAF47F001070C46F5E747F002070C4689
:106A4000F1E7DAF800301A1DCAF8002062781E68F3
:106A50002E2A04F102007FF42BAF4A78A2F1300312
:106A6000092B00F25081002303EB830302EB430365
:106A700010F8012FA2F130010929A3F13003F3D955
:106A8000014616E7284605B0BDE8F04FFFF71EBEE9
:106A9000AB682A68591CA9604FF02501D154D5E98B
:106AA00001329A42FFF4C1AECEE6DAF80020111DA1
:106AB000CAF8001011682846CDE900671022FFF7D8
:106AC00021FEB2E6DAF80020131DCAF80030AB68E8
:106AD00029681278581CA860CA54D5E901329A4234
:106AE000FFF4A3AEB0E6DAF80020111DCAF80010DA
:106AF000D2F8008088EAE872A2EBE872092A4FF027
:106B0000010107DDAF48A0FB0202D208092A01F10A
:106B10000101F7DC994238BF1946894607F00202A5
:106B2000002E71D12AB1002B00F04781FA0700F145
:106B30008D8000268AE0DAF80020131DCAF80030A4
:106B4000AB6829681768581C3022A860CA54D5E978
:106B50000123934280F028812A68581C7821A8607C
:106B6000D154D5E90123934280F019810F2F03D925
:106B70003A4612090F2AFCD84FF0805603E0360936
:106B80003FF453AEAB682968B7FBF6F2581CA86017
:106B90001BF80200C854D5E90131994206FB12776F
:106BA000EDD32846FFF792FDE9E7DAF800301A1D29
:106BB000CAF80020D3F80080FB077ED54746A7EB34
:106BC000080917F8013B002B5DD0AA682968501C02
:106BD000A8608B54D5E901329A42F0D32846FFF7DA
:106BE00075FDECE7DAF80020111DCAF800101168F5
:106BF0002846CDE900670A22FFF784FD15E67047B5
:106C000008460026214650E6B8F1000F01DB780760
:106C100000D5013E02B1CBB1F90717D4002E88D0C0
:106C2000B14513D220220393A9682B68481CA860A1
:106C30005A54D5E90131994206F1FF365DD2002E52
:106C400000F0BD80B145EFD1039B4E46B8F1000F77
:106C5000C0F292807A070AD5A9684A1CAA602A68FD
:106C60002B205054D5E90121914280F0928007F009
:106C70000302022A5FD0CDE9006741460A22284676
:106C8000FFF740FDD1E54E457FF6CFAD202705E06B
:106C90004E453FF4CAAD002E3FF4C7ADAB682A683D
:106CA000591CA960D754D5E901329A4206F1FF3642
:106CB000EED32846FFF70AFDEAE7B8F1000F24D02B
:106CC000404608F03FF80746BE4220D9FEB14FF0DB
:106CD000200902E0BE421AD0CEB1AB682A68591C26
:106CE000A96002F80390D5E901329A4206F1FF3615
:106CF000F0D32846FFF7EAFCECE728460292FFF7BC
:106D0000E5FC029A9BE70146D2E54746DCE708F13D
:106D1000FF3818F8013F002B3FF487ADAA682968B7
:106D2000501CA8608B54D5E901329A42F1D3284611
:106D3000FFF7CCFCEDE7002B9DD1002E3BD0B145F9
:106D400099D2029323464C469946AA682B68501C58
:106D50004FF03001A8609954D5E901329A4206F10A
:106D6000FF3605D22EB3B442EFD1029B4C4682E7E8
:106D70002846FFF7ABFCF5E7A9684A1CAA602A6819
:106D80002D205054D5E901219142C8F10008FFF4AB
:106D90006EAF28460293FFF799FC029B67E72846EF
:106DA000FFF794FCAB68E1E62846FFF78FFCAB6881
:106DB000D2E6029B4C4600265DE71E4646E7039B53
:106DC000B7E600BFCDCCCCCCD4F1020020B119B1D4
:106DD00001600B68114618470E20704750B32DE92B
:106DE000F0414AB3D0F800E0BEF1000F27D01D46B5
:106DF00073B14768D7F80480B3FBF8F708FB17377F
:106E000037B942EA0104A40705D01020BDE8F0819B
:106E10000920BDE8F081C468A142F6D301F1FF3C2E
:106E200004696544A542F0D8DEF80C40A446BDE8EC
:106E3000F04160470E2070470E20BDE8F081082029
:106E4000BDE8F081E0B1F0B50668DEB1A2B14768F7
:106E5000D7F800E00EF1FF370F420FD1C768B942F3
:106E60000CD34D1E046902FB0E55A54206D83469A9
:106E7000A446BDE8F04060470920F0BD1020F0BDF9
:106E80000E2070470820F0BD18B103680BB1DB6914
:106E9000184770B50D4C0E4D0E4B2D1BA3FB053541
:106EA0002D0910D005EB850504EB850501E0AC420A
:106EB00009D0236820461434002BF8D0DB699847AA
:106EC0000028F4D070BD002070BD00BF5C230020FE
:106ED00070230020CDCCCCCC29DF704728DF704751
:106EE0000846704700207047024B187A003018BFE0
:106EF00001207047D82B0020034B187A0122B0FAEA
:106F000080F05A7440097047D82B002008B510460D
:106F10001A4607F004FF002008BD00BF08B5142280
:106F20000021044807F006FF0348FFF7D3FA0020CA
:106F300008BD00BFD82B0020C82B002038B50C4C52
:106F4000012354E8002F42EA030144E8001595F0BC
:106F5000000FF6D152B9074B436007F01DFD1C230B
:106F600020748C2204490548FFF79CFA002038BDA4
:106F7000D82B0020E4F102003C2B0020C82B00207D
:106F800030B5674C237A012B87B037D0022B0ED156
:106F9000022800F08280032830D1E3680133082BF7
:106FA00007D8E360637C002B2DD007F08DFC07B081
:106FB00030BD5C4B00221B68E26022720D2519680F
:106FC0008A68BAB1002201A80192C0E902220295A2
:106FD0009A6805921A79002A00F09980012A07D14F
:106FE00002228DF80420DA68120303925B6904938D
:106FF0008B6898474C494D48FFF7F8FA637C002BA3
:10700000D3D1237A9BB1474B1B68022222721A7993
:10701000CAB1012A2AD1D3E903021044FFF75EFF67
:1070200000284CD0112821D101232372BFE73E490B
:107030003E48FFF7ADFA3B4A034610600028E4D112
:10704000636007B030BDD3E90525521BB2F5805F00
:10705000D3E9031028BF4FF480529208012A38BFA9
:10706000012229442844FFF737FFD9E719688A68C5
:107070007AB1002201A80192C0E9022203250295FB
:107080009A6805921A79002A39D0012A20D08B6893
:107090009847002323726360D3E7224B00221B68CA
:1070A000E2601A79EAB1012AA8D1D3E904210132B8
:1070B0008A421A617FF476AF002525727FE7237C30
:1070C000002B7FF474AF01460220FFF759FF6EE7F3
:1070D00002228DF80420DA68120303925B6904939C
:1070E000D5E7D3E90512881AB0F5805F94BF12186E
:1070F00002F5805291429A617FF454AFDCE701229D
:107100008DF804201A6903925B690493BFE701229A
:107110008DF804201A6903925B69049368E700BF45
:10712000D82B0020F02B0020EC2B0020C82B0020B7
:1071300030B5384C237A87B0002B35D0364B02223D
:107140001B6822721A79002A3CD0012A0CD1D3E99B
:1071500003021044FFF7C2FE002847D0112803D1D4
:107160000123237207B030BD19688A68BAB10022C2
:107170000392019204929A680592032202921A796C
:10718000002A3BD0012A07D1DA685B690493130314
:10719000022203938DF804208B6801A898470023EE
:1071A0002372636007B030BD1C491D48FFF7F0F93A
:1071B000194A034610600028F3D0022222721A797D
:1071C000002AC2D1D3E90525521BB2F5805F28BF42
:1071D0004FF48052D3E903109208012A38BF0122EC
:1071E00029442844FFF778FE0028B7D1237C002BE0
:1071F000D8D101460220FFF7C3FED3E7D3E9042329
:10720000CDE9032301208DF804008B6801A898477D
:10721000C5E700BFD82B0020F02B0020EC2B00206E
:10722000C82B00202DE9F04383B081460E461B4851
:10723000694617469846FFF76FF950B304461C227B
:1072400000210125360B07F075FDE660C4F80090BB
:10725000C4F808806761694625711048FFF788F90E
:107260000F4A131D53E8001F284643E8000494F01A
:10727000000FF7D10191019838B9547C34B9FFF768
:1072800057FF204603B0BDE8F083002003B0BDE8FF
:10729000F083042003B0BDE8F08300BFC82B0020BA
:1072A000D82B00202DE9F04383B0814688461B4847
:1072B000694617461E46FFF72FF958B304461C22AD
:1072C00000210D4607F036FD0A9BA3606946C4F80D
:1072D0000090C4E90378666125711048FFF748F90A
:1072E0000F4901220B1D53E8000F144643E80046E6
:1072F00096F0000FF7D10190019838B94C7C34B961
:10730000FFF716FF204603B0BDE8F083284603B020
:10731000BDE8F083042003B0BDE8F083C82B002053
:10732000D82B002000F0FD03012B00D0704730B5B2
:107330003A4CA0F10100B0FA80F0237A4009002213
:1073400087B020746274002B35D0354B02221B6845
:1073500022721A79002A3CD0012A0CD1D3E9030207
:107360001044FFF7BBFD002847D0112803D10123AB
:10737000237207B030BD19688A68BAB1002203923F
:10738000019204929A680592032202921A79002AC5
:107390003BD0012A07D1DA685B6904931303022208
:1073A00003938DF804208B6801A89847002323726B
:1073B000636007B030BD1B491B48FFF7E9F8184A66
:1073C000034610600028F3D0022222721A79002AA4
:1073D000C2D1D3E90525521BB2F5805F28BF4FF417
:1073E0008052D3E903109208012A38BF01222944B0
:1073F0002844FFF771FD0028B7D1237C002BD8D19A
:1074000001460220FFF7BCFDD3E7D3E904230120A6
:107410008DF80400CDE90323C5E700BFD82B002079
:10742000F02B0020EC2B0020C82B0020FFF7EEB83B
:107430002DE9F041058ACE1C043D2E440746B6FBDB
:10744000F5F6FFF7FFF878B3F6B24FF48073013E1C
:107450000446C5800760838027D08046002509E068
:107460006379AE4203F101036371C8F8000007605D
:1074700080461AD03846FFF7E5F801350028EFD1ED
:107480006679721E14D02346013082421B68FBD1FC
:107490001F684EB1002523682146013538461C4639
:1074A000FFF7F8F8AE42F6D100242046BDE8F0819F
:1074B0002768EFE710B40430012350E8002F02EBF7
:1074C000030140E8001494F0000FF6D15DF8044B7E
:1074D000704700BF0146021DF8B5012052E8004F79
:1074E000A4EB000342E8003595F0000FF6D113F04D
:1074F000FF0300D0F8BD4E79701E11D00A4601334B
:1075000098421268FBD11768002EF3D000240D6852
:1075100001343846FFF7BEF8A6422946F7D1F8BD38
:107520000F68F3E72DE9F8430446181DE688B0FB21
:10753000F6F30F46904606FB130013B1013B246897
:10754000FCD1351A454528BF4546B8F1000F15D086
:107550004FF000090430A8EB050820442A4607EB49
:10756000090107F0DCFB4645A944246835464FF085
:10757000000028BF4546B8F1000FEBD1BDE8F88305
:107580002DE9F843C688043304460F46B3FBF6F0F2
:10759000904606FB103110B101382468FCD1751AF1
:1075A000454528BF4546B8F1000F15D04FF00009FA
:1075B00004312144A8EB05082A4607EB090007F02F
:1075C000AEFB4645A944246835464FF0000128BF6C
:1075D0004546B8F1000FEBD1BDE8F88301600B68B8
:1075E00043604A68934204BF00234360704700BF72
:1075F000436843B1026891680B4443605268934208
:1076000004BF00234360704730B4184DA5F1F00269
:10761000AB1ADB1003EBD3735B1002EBC30152F820
:107620003330984228BF0C4605D311E052F833306E
:1076300098420CD221468B1ADB1003EBD3735B10FC
:107640008A4202EBC304F1D3094830BC70470D46AF
:10765000984204D904F10802AA42D9D3F4E7606839
:10766000034B002808BF1846EFE700BF20F30200D5
:107670001CF2020010B40023012401E0202B0AD0E8
:1076800004FA03F2024299B203F10103F6D008466C
:107690005DF8044B70474FF6FF7108465DF8044BE8
:1076A000704700BFA0B199B130B40238002402E0A5
:1076B0000134202C0AD030F8025F9542F8D1012223
:1076C00002FA04F40A6823B122430A6030BC70470E
:1076D000704722EA04020A6030BC704770B49DF81B
:1076E0000C60D0B1C9B1C2B10238002402E001344B
:1076F000202C12D030F8025F9D42F8D1012301EB1B
:10770000820203FA04F4E043043A04393EB951F822
:10771000043F034091420B60F9D170BC704751F8AF
:10772000043F234391420B60F7D051F8043F2343B9
:1077300091420B60F3D1F0E7A0B110B402380023FE
:1077400002E00133202B0ED030F8024F9442F8D1E2
:10775000012202FA03F30B4214BF104600205DF829
:10776000044B7047704700205DF8044B704700BF22
:10777000F0B491B100252B46012606FA03F4144219
:1077800005D000EB450431F81370A78001350133B3
:10779000202BF2D10560F0BC70470D460560F0BCAF
:1077A000704700BF054A4FF0A043105CD3F8043582
:1077B00023FA00F0C04300F0010070472CF60200ED
:1077C000044B195C4FF0A04201238B40C2F80C35EA
:1077D000704700BF2CF60200044B195C4FF0A0422A
:1077E00001238B40C2F80835704700BF2CF6020019
:1077F0004FF0A04310B44FF480204FF400344FF406
:1078000000214FF48012C3F80845C3F80805C3F8F7
:107810000815C3F808255DF8044B70474FF0A043E6
:1078200010B44FF480204FF400344FF400214FF493
:107830008012C3F80C45C3F80C05C3F80C15C3F847
:107840000C255DF8044B7047074B4FF0A041185CC6
:10785000D1F804350122824022EA03001340C1F826
:107860000805C1F80C3570472CF6020030B44FF013
:10787000A04303224FF400354FF480244FF400203E
:107880004FF48011C3F84427C3F84827C3F84C27A6
:10789000C3F85027C3F80855C3F80845C3F80805CE
:1078A000C3F8081530BC7047054A4FF0A043105C80
:1078B000D3F8103523FA00F0C04300F00100704700
:1078C00028F602000D2809D00E2809D00F2809D06B
:1078D00010280CBF03204FF0FF3070470020704786
:1078E0000120704702207047014B185C704700BFB1
:1078F00028F6020060B910B5064CA3683BB1D3E985
:1079000000230020A2609847A368002BF7D110BD88
:10791000704700BFF42B002010B5012882B029D099
:1079200022D303281ED10721002000F093F802A8DB
:107930000023264C00F8013DFDF72CFAE368013BDB
:10794000E360E36853B9224B01221A604FF0804292
:10795000D2F8183413F48033FAD1A3709DF80700DD
:10796000FDF73EFA02B010BD1A4B0122C3F8802089
:1079700002B010BD02A80023144C00F8013DFDF731
:1079800009FA237853B1E3689DF807000133012217
:10799000E360A270FDF724FA02B010BD0D4A6360E7
:1079A000A3602361E360106810F001000AD006F0C4
:1079B000F3FF20B94FF080430122C3F818250123BB
:1079C0002370E0E7072100F045F8F0E7F42B0020F2
:1079D0000C00004000E100E010B51B4B1A6882B0BB
:1079E000AAB100221A601B6800934FF08043012265
:1079F000164C0099C3F80823A36862703BB1D3E921
:107A000000230020A2609847A368002BF7D1104BF9
:107A10001A68B2B100221A601B6801934FF08043CC
:107A200002220A4C0199C3F8082323690122A2709B
:107A30003BB1D3E900230120226198472369002B41
:107A4000F7D102B010BD00BF00010040F42B0020B0
:107A5000040100404901002810B4C9B2C3B215DBCB
:107A600000F1604202F5614282F800134009800093
:107A700000F1604000F5614003F01F0201239340D4
:107A8000C0F8803103605DF8044B7047024A03F090
:107A90000F0422441176E9E7FCEC00E030B5194C04
:107AA00094F8545083B055BB4FF0FF3307210620A4
:107AB000C4E90033C4E90233C4E90433C4E906333A
:107AC000C4E90833C4E90A33C4E90C33C4E90E330A
:107AD000C4E91033C4E912332365FFF7BBFF0A4B37
:107AE0000A4A1D601B68019301984FF00043012171
:107AF000284684F85410C2F8043303B030BD08207F
:107B000003B030BD082C00207C61004000600040C4
:107B1000034B93F85400003018BF0120704700BF9A
:107B2000082C0020F0B4654B1C1894F93050002D3F
:107B300066DACE78002E5DD11D6A013500F0AD8089
:107B400009240C2553F8247001375DD004F1010C91
:107B500053F82C70013700F0AA8004F1020CAC45F8
:107B600045D253F82C70013700F0A18004F1030CCA
:107B7000AC453CD253F82C70013700F0988004F1EA
:107B8000040CAC4533D253F82C70013700F08F80D1
:107B900004F1050CAC452AD253F82C70013700F0E3
:107BA000868004F1060CAC4521D253F82C700137C5
:107BB0007DD004F1070CAC4519D253F82C70013775
:107BC00075D004F1080CAC4511D253F82C70013774
:107BD0006DD004F1090CAC4509D253F82C70013773
:107BE00065D00A34AC4202D2DC6A01340BD00420E6
:107BF000F0BC70471D6801355BD001240825A1E762
:107C00000820F0BC70470B241F1865B243F82420ED
:107C100087F83050002E46D08A78B2B1820002F147
:107C2000A042D2F8004724F00204C2F80047CA7804
:107C30000978B2B9083D2B44104693F8502042EA27
:107C4000811183F85010F0BC70474C7800F5E07259
:107C50004FF0A046A40046F82240CA780978002ACE
:107C6000E8D0AB0003F1804303F5C0430002D3F832
:107C7000102522F4473222F44072C3F8102509047B
:107C800000F4F850D3F8102501F4403101431143BA
:107C9000C3F810150020F0BC7047082684F8306047
:107CA0001A62354634461C4484F84800B4E76446FA
:107CB000AAE700251A6084F83050ADE7082C0020B0
:107CC00070B42E4D2E1883B096F93030072B1CDD82
:107CD0002B4493F848309B09032B41D0012B14BF50
:107CE0004FF440314FF40031800000F1A040D0F853
:107CF000002722F44032C0F80027D0F800370B43A9
:107D0000C0F8003703B070BC7047DAB2072AF9D860
:107D1000980000F1804000F5C04003F14002D0F827
:107D20001045920092B244F0010402F18042C0F882
:107D3000104502F5C04200200190019C106000290E
:107D4000E0D096F9302055F82220002ADAD001221E
:107D50000B4902FA03F3C1F8043303B070BC704757
:107D60004FF0A043D3F81035C34013F0010F0CBF00
:107D70004FF400314FF44031B6E700BF082C00202B
:107D8000006000404FF0A043D3F8103523FA00F014
:107D900000F00100704700BF2DE9F04186B00023DC
:107DA000A14A01931668012E00F054811E469F4B94
:107DB0001A68012A00F05D819D4B1A68012A00F0C3
:107DC0006A819C4B1A68012A00F077819A4B1A68E5
:107DD000012A00F08481994B1A68012A00F09181F0
:107DE000974B1A68012A00F09E81964B1A68012A67
:107DF0000CD0954B1B68012B00F0A58116F0FF0FEE
:107E000015D1002E30DB06B0BDE8F0818F4AD2F8E4
:107E100004231706EDD500221A601A680492603315
:107E2000049A1B68012B46F0800600F08C81884F75
:107E300000240125A30003F18043354203F5C0432C
:107E40004FEA45050BD0D3F8100557F82420D3F896
:107E50001015C0F30420C1F3014102B19047013471
:107E6000082CE7D1002ECEDA00224FF0FF33CDE907
:107E70000223774C012602AF94F950305D1C2CD0C0
:107E8000DBB223F0C00006AA4FEAD00C02EB0C0EC6
:107E900003F007021EF80C1C06FA02F211421CD075
:107EA0002518990995F9303054F82330002B00F04B
:107EB0009881032900F098814FEA800C0CF1A04CC6
:107EC0001EF8145CDCF800E71540CEF3014E40F0DC
:107ED0005C81BEF1030F00F0DE81002594F9513082
:107EE000581C2DD0DBB223F0C00006AA4FEAD00800
:107EF00002EB080E03F007011EF80C2C06FA01FC39
:107F000012EA0C0F1CD02218990992F9303054F85B
:107F10002330002B00F05B81032900F05B8182009D
:107F200002F1A0421EF8148CD2F800E718EA0C0FF8
:107F3000CEF3014E40F03681BEF1030F00F0A68172
:107F400094F95230591C2DD0DBB223F0C00006AAA0
:107F50004FEAD00802EB080E03F007011EF80C2CC4
:107F600006FA01FC12EA0C0F1CD02218990992F9AA
:107F7000303054F82330002B00F03C81032900F00E
:107F80003C81820002F1A0421EF8148CD2F800E776
:107F900018EA0C0FCEF3014E40F0E380BEF1030F60
:107FA00000F06E8194F953305A1C2DD0DBB223F0CF
:107FB000C00006AA4FEAD00802EB080E03F0070142
:107FC0001EF80C2C06FA01FC12EA0C0F1CD0221829
:107FD000990992F9303054F82330002B00F0ED80ED
:107FE000032900F0ED80820002F1A0421EF8148CFB
:107FF000D2F800E718EA0C0FCEF3014E40F0BC8037
:10800000BEF1030F00F00081002D3FF4FCAE4FF0F5
:10801000A043019AD3F8103593423FF4F4AE029A8C
:108020000193039228E700BF006100400461004013
:10803000086100400C610040106100401461004084
:10804000186100401C6100407C61004000600040FD
:10805000082C00209A49D1F8041311F0010170D0C6
:10806000136013680493049B964B1A68012A7FF4EB
:10807000A3AE934AD2F8042397077FF59DAE002262
:108080001A601B680493049B8F4B1A68012A46F000
:1080900002067FF496AE8A4AD2F8042355077FF58C
:1080A00090AE00221A601B680493049B874B1A68E9
:1080B000012A46F004067FF489AE814AD2F80423EF
:1080C00014077FF583AE00221A601B680493049B9B
:1080D0007F4B1A68012A46F008067FF47CAE784A86
:1080E000D2F80423D0067FF576AE00221A601B6812
:1080F0000493049B774B1A68012A46F010067FF41C
:108100006FAE6F4AD2F8042391067FF569AE002264
:108110001A601B680493049B6F4B1A68012A46F08F
:1081200020067FF462AE664AD2F8042352067FF539
:108130005CAE00221A601B680493049B46F0400664
:1081400053E60E4633E6654B00221A601B68059322
:108150004FF0A043059AD3F81035019346F000463E
:108160004CE6BEF1020F7FF41DAF032963D0002B54
:108170003FF418AF984715E7BEF1020F7FF444AF04
:10818000032969D0002B54D13EE7BEF1020F7FF4E2
:10819000A4AE032900F091800025002B3FF49EAE91
:1081A00098479BE6BEF1020F7FF4CAAE032956D072
:1081B000002B3FF4C5AE9847C2E603297FF424AFF5
:1081C00017F8082042EA0C0207F808200BE70329F9
:1081D0007FF4B6AE17F8082042EA0C0207F8082030
:1081E0009DE603297FF479AE17F80C50154307F884
:1081F0000C5061E603297FF4D5AE17F8082042EA57
:108200000C0207F80820BCE60329BBD14FF4003E5E
:10821000D2F800C72CF4403CC2F800C7D2F800C71F
:1082200001354CEA0E0CEDB2C2F800C7002B3FF44A
:10823000EEAE9847E8E64FF4403ED2F800C72CF483
:10824000403CC2F800C7D2F800C701354CEA0E0C1A
:10825000EDB2C2F800C78AE74FF4403ED8E74FF4CA
:10826000403ED2F800C72CF4403CC2F800C7D2F818
:1082700000C701354CEA0E0CEDB2C2F800C797E713
:1082800003297FF474AF4FF4003ED6E703298FD162
:108290004FF4003EE5E703297FF47FAF4FF400354C
:1082A000DCF8002722F44032CCF80027DCF8002765
:1082B0002A43CCF8002701256FE74FF44035EFE75C
:1082C0000060004004610040086100400C61004013
:1082D0001061004014610040186100407C61004062
:1082E000F0B506796F4C7601A31987B0DD7E002DBD
:1082F00040F089804D7F1D770B685D1C0CD00125F7
:108300004FF0A04705FA03F3C7F808350B6803F5EB
:10831000E073032547F823504B685F1C06D003F534
:10832000E0734FF0A045002745F8237003790568F6
:108330008F6904EB43131B7FC5F82475002B46D0CF
:108340000F7D4B7D05683B43C5F86C35D1E9007561
:108350000368C3F80C75C3F814550B7D012B7FD04F
:10836000A31905465A600B69A351EAB10379097F45
:10837000026804EB43131B7F002B4BD1C2F81C3166
:10838000D2F81C012A6800900098C2F84431D2F853
:1083900044212B680192444A0198C3F804232868B9
:1083A00040F30730FFF756FB2B792A6804EB4313A1
:1083B0001B7F5BB30823C2F800353444002001233F
:1083C000E376E0752076A075A07607B0F0BD91F851
:1083D00014C04D7D076845EA0C05C7F86C55D1E916
:1083E00000C70568C5F81475C5F80CC50D7D012DCD
:1083F000B6D18D686F1C3DD005F5E0754FF0A047F4
:1084000047F8253036E0082007B0F0BD0423C2F855
:108410000035D2E70023C2F81031D2F810012A68E3
:1084200002900298C2F82031D2F820012A68039005
:108430000398C2F82431D2F824012A6804900498E1
:10844000C2F84431D2F844212B680592174A0598A6
:10845000C3F80423286840F30730FFF7FBFAA3E7CB
:108460008B685D1C06D003F5E0734FF0A045002734
:1084700045F82370CB685D1C0DD001254FF0A04757
:1084800005FA03F3C7F80835CB6803F5E073032555
:1084900047F82350CB6805688F68C5F80835C5F8DC
:1084A00010755DE7602C00208000020010030200C0
:1084B000F0B404793C4B016864011A19127F002A58
:1084C0006DD00022C1F800251A190179556802689B
:1084D000B5B103EB4111097F002963D13349C2F8DB
:1084E00008130268324E120B51B24909203102F0D2
:1084F0001F02012505FA02F246F8212001790268DF
:10850000D2F80C75D2F8146503EB41114FF0FF3C23
:10851000097FB1B3D2F80815D2F81055C2F80CC5CE
:10852000C2F814C50268C2F808C5C2F810C57A1CA2
:1085300006D007F5E0774FF0A042022042F827006E
:10854000771C06D006F5E0764FF0A042022042F8F4
:108550002600681C06D005F5E0754FF0A042022009
:1085600042F825004A1C06D001F5E0714FF0A04208
:10857000022042F8210023440022DA765A60F0BC3F
:108580007047D2F80815D2F81055C2F814C5C2F8D1
:108590000CC50268C2F808C5C2F810C5C7E7C1F823
:1085A000002591E703499AE7602C0020840202002D
:1085B00000E100E010030200F0B50379524C5B01CA
:1085C000E51887B02D7F25B101F06045B5F1005F5A
:1085D00058D123449E7D002E57D19A7599609E8272
:1085E00005796D016219137F13BB0168C1F81C3155
:1085F000D1F81C61016804960126049F8E60016811
:10860000D2F808C0C1F81C31D1F81C310593059B84
:10861000968A938A5768B6B201331CF806609BB2FB
:108620009382C1F81C65002F32D0002007B0F0BD46
:1086300003689168C3F82061D3F82031019303687F
:10864000019FC3F85861D3F8586103680296967D7C
:10865000029FC3F84415C3F8486503680121996077
:108660005368002BE1D1036801E0002949D1D3F818
:108670002021D3F85811002AF7D0002914BF0F2069
:10868000002039E0102007B0F0BD112007B0F0BD88
:10869000967D938A9E4222D9016804E0938A9BB218
:1086A000B3F5807F03D0D1F81C31002BF6D0938A2C
:1086B0009BB2B3F5807FECD0C1F81C71D1F81C31AE
:1086C0000393039BB2F814E0938A1FFA8EFE0133E2
:1086D0001CF80EE09BB29382C1F81CE5D9E7938A9F
:1086E0009BB2B3F5807F0CD00268D2F81C31002B0E
:1086F000FBD00123D36000202C440023A37507B0D6
:10870000F0BD0F20F8E700BF602C0020F0B5A94CA9
:10871000237F8FB0002B73D1A74AD2F804138905A9
:1087200046D4A54BD3F80423520704D5D3F8082127
:10873000002A40F0D480A04BD3F81C21BAB1A18A02
:10874000A27D8A4200F2B9800021C3F81C11D3F83F
:108750001C310593059B52B1A3688DF82810A175B3
:108760000B938DF83020D4E900130AA89847924B58
:10877000D3F84421D2B10022C3F84421D3F84411E4
:10878000A27E04910499002A40F09480E37D6BB1AD
:108790000023617EE268E37501238DF830108DF8C7
:1087A00028300B92D4E900130AA898470FB0F0BD07
:1087B000D2F824110029B4D0C2F82431D2F82411FF
:1087C000A37E07914FF401710798C2F808130BB903
:1087D00001235360784A02238DF82830D2F8803480
:1087E000C2F88034E07DE2680D9300238DF83000FC
:1087F000E375237621680B9263680AA898479AE785
:108800006D4BD3F82421002A00F097800022C3F892
:108810002421D3F82411029102218DF82810029905
:10882000D3F88014C3F880140D91D3F83C15E36895
:108830008DF830100B93E2752276216863680AA8E0
:1088400098475D4BD3F84421B2B10022C3F84421CC
:10885000D3F84401E17D0190019869B1D3F83C352A
:10886000E1688DF8303001230B918DF82830E275E6
:10887000D4E900130AA898474F4BD3F82021002AC7
:1088800094D00022C3F82021D3F82001A17D0090CC
:10889000009800298AD0D3F84C15A3688DF83010C1
:1088A0000B938DF82820A275D4E900130AA89847E5
:1088B0000FB0F0BD01221A6068E70022C3F81C2146
:1088C000D3F81C210692069AA18AA28AA06889B2CE
:1088D0000132415C92B2A282C3F81C1547E7E27DE7
:1088E000002A54D00022C3F80821D3F808210892A6
:1088F000089AE168627ED3F818358B54637EE27D76
:108900000133DBB26376637E93427FF414AF237E40
:108910002168002B52D0E268657E2069E3750B92D6
:1089200000230122E060237663768DF830508DF8C5
:10893000282063680AA89847FDE6D3F8101100299B
:108940003FF47FAFC3F81021D3F8101103910399BE
:10895000D3F83C15E07DC9B288427FF472AF257E22
:10896000E768D4E90016DDB1D3F800C2E5752CF054
:1089700020052276C3F80052012223698DF83000C9
:10898000E3600B978DF828200AA8B04759E7C3F891
:108990000821D3F8081109910999D3F81835B2E7DD
:1089A00001238DF83000E5750B978DF828300AA863
:1089B000B04746E7602C002000200040A37E13B99A
:1089C0000A4B01225A60094AE06863684FF4017556
:1089D000C2F80853627E8DF83020002501220B90EA
:1089E000E5758DF828200AA89847A4E600200040E5
:1089F0000220FEF729BF00BF2DE9F0470D460646CD
:108A0000FEF760FF03281ED8012D04461DD00ED3AB
:108A1000022D18D11B4B00EB40041C44657895B126
:108A2000194B1B687BB12846BDE8F047184717482B
:108A3000FCF776F9134B164A04EB44010B44125D24
:108A40009D78AA42EBD0BDE8F0870E4F4FEA400870
:108A500008EB0003FA18FD5C53782BB9A044474497
:108A60000B4BBA781A55DAE7DFF8289007484A46E0
:108A70004FF40041FCF7FEF80028EFD189F80060C0
:108A8000ECE700BFC42C0020F82C0020A42C002010
:108A9000002D0020802C002010B50078FEF712FF7A
:108AA00003280BD8064B00EB40001844407828B14F
:108AB000044B1B6813B1BDE81040184710BD00BF40
:108AC000C42C0020F82C0020B24B1B68DB0700D41C
:108AD000704770B5B04DB14E2B7834786BB1B04B58
